{
  "contractName": "OverTheCounterFactory",
  "abi": [
    {
      "inputs": [
        {
          "internalType": "address",
          "name": "_nftAddress",
          "type": "address"
        }
      ],
      "stateMutability": "nonpayable",
      "type": "constructor"
    },
    {
      "anonymous": false,
      "inputs": [
        {
          "indexed": true,
          "internalType": "address",
          "name": "previousOwner",
          "type": "address"
        },
        {
          "indexed": true,
          "internalType": "address",
          "name": "newOwner",
          "type": "address"
        }
      ],
      "name": "OwnershipTransferred",
      "type": "event"
    },
    {
      "anonymous": false,
      "inputs": [
        {
          "indexed": true,
          "internalType": "address",
          "name": "from",
          "type": "address"
        },
        {
          "indexed": true,
          "internalType": "address",
          "name": "to",
          "type": "address"
        },
        {
          "indexed": true,
          "internalType": "uint256",
          "name": "tokenId",
          "type": "uint256"
        }
      ],
      "name": "Transfer",
      "type": "event"
    },
    {
      "stateMutability": "payable",
      "type": "fallback",
      "payable": true
    },
    {
      "inputs": [
        {
          "internalType": "uint256",
          "name": "",
          "type": "uint256"
        }
      ],
      "name": "balances",
      "outputs": [
        {
          "internalType": "uint256",
          "name": "",
          "type": "uint256"
        }
      ],
      "stateMutability": "view",
      "type": "function",
      "constant": true
    },
    {
      "inputs": [],
      "name": "basePriceUSD",
      "outputs": [
        {
          "internalType": "int256",
          "name": "",
          "type": "int256"
        }
      ],
      "stateMutability": "view",
      "type": "function",
      "constant": true
    },
    {
      "inputs": [],
      "name": "baseURI",
      "outputs": [
        {
          "internalType": "string",
          "name": "",
          "type": "string"
        }
      ],
      "stateMutability": "view",
      "type": "function",
      "constant": true
    },
    {
      "inputs": [],
      "name": "intervalLengthSeconds",
      "outputs": [
        {
          "internalType": "uint256",
          "name": "",
          "type": "uint256"
        }
      ],
      "stateMutability": "view",
      "type": "function",
      "constant": true
    },
    {
      "inputs": [],
      "name": "intervalStartUnixSeconds",
      "outputs": [
        {
          "internalType": "uint256",
          "name": "",
          "type": "uint256"
        }
      ],
      "stateMutability": "view",
      "type": "function",
      "constant": true
    },
    {
      "inputs": [],
      "name": "minterAddress",
      "outputs": [
        {
          "internalType": "address",
          "name": "",
          "type": "address"
        }
      ],
      "stateMutability": "view",
      "type": "function",
      "constant": true
    },
    {
      "inputs": [],
      "name": "minterBalIdx",
      "outputs": [
        {
          "internalType": "uint256",
          "name": "",
          "type": "uint256"
        }
      ],
      "stateMutability": "view",
      "type": "function",
      "constant": true
    },
    {
      "inputs": [],
      "name": "nftAddress",
      "outputs": [
        {
          "internalType": "address",
          "name": "",
          "type": "address"
        }
      ],
      "stateMutability": "view",
      "type": "function",
      "constant": true
    },
    {
      "inputs": [],
      "name": "owner",
      "outputs": [
        {
          "internalType": "address",
          "name": "",
          "type": "address"
        }
      ],
      "stateMutability": "view",
      "type": "function",
      "constant": true
    },
    {
      "inputs": [],
      "name": "ownerBalIdx",
      "outputs": [
        {
          "internalType": "uint256",
          "name": "",
          "type": "uint256"
        }
      ],
      "stateMutability": "view",
      "type": "function",
      "constant": true
    },
    {
      "inputs": [],
      "name": "priceModifierHashCount",
      "outputs": [
        {
          "internalType": "int256",
          "name": "",
          "type": "int256"
        }
      ],
      "stateMutability": "view",
      "type": "function",
      "constant": true
    },
    {
      "inputs": [],
      "name": "priceModifierIntervalCount",
      "outputs": [
        {
          "internalType": "int256",
          "name": "",
          "type": "int256"
        }
      ],
      "stateMutability": "view",
      "type": "function",
      "constant": true
    },
    {
      "inputs": [],
      "name": "priceModifierTotalMintedCount",
      "outputs": [
        {
          "internalType": "int256",
          "name": "",
          "type": "int256"
        }
      ],
      "stateMutability": "view",
      "type": "function",
      "constant": true
    },
    {
      "inputs": [],
      "name": "renounceOwnership",
      "outputs": [],
      "stateMutability": "nonpayable",
      "type": "function"
    },
    {
      "inputs": [],
      "name": "name",
      "outputs": [
        {
          "internalType": "string",
          "name": "",
          "type": "string"
        }
      ],
      "stateMutability": "pure",
      "type": "function",
      "constant": true
    },
    {
      "inputs": [],
      "name": "symbol",
      "outputs": [
        {
          "internalType": "string",
          "name": "",
          "type": "string"
        }
      ],
      "stateMutability": "pure",
      "type": "function",
      "constant": true
    },
    {
      "inputs": [],
      "name": "supportsFactoryInterface",
      "outputs": [
        {
          "internalType": "bool",
          "name": "",
          "type": "bool"
        }
      ],
      "stateMutability": "pure",
      "type": "function",
      "constant": true
    },
    {
      "inputs": [
        {
          "internalType": "int256",
          "name": "_basePriceUSD",
          "type": "int256"
        },
        {
          "internalType": "int256",
          "name": "_hashCount",
          "type": "int256"
        },
        {
          "internalType": "int256",
          "name": "_intervalCount",
          "type": "int256"
        },
        {
          "internalType": "int256",
          "name": "_totalMintedCount",
          "type": "int256"
        }
      ],
      "name": "setPriceModifiers",
      "outputs": [],
      "stateMutability": "nonpayable",
      "type": "function"
    },
    {
      "inputs": [
        {
          "internalType": "uint256",
          "name": "_intervalStartUnixSeconds",
          "type": "uint256"
        },
        {
          "internalType": "uint256",
          "name": "_intervalLengthSeconds",
          "type": "uint256"
        }
      ],
      "name": "setIntervalDetails",
      "outputs": [],
      "stateMutability": "nonpayable",
      "type": "function"
    },
    {
      "inputs": [],
      "name": "withdraw",
      "outputs": [],
      "stateMutability": "nonpayable",
      "type": "function"
    },
    {
      "inputs": [],
      "name": "withdrawMinterFee",
      "outputs": [],
      "stateMutability": "nonpayable",
      "type": "function"
    },
    {
      "inputs": [
        {
          "internalType": "uint256",
          "name": "_keyTokenId",
          "type": "uint256"
        }
      ],
      "name": "setKeyToken",
      "outputs": [],
      "stateMutability": "nonpayable",
      "type": "function"
    },
    {
      "inputs": [],
      "name": "takeOwnership",
      "outputs": [],
      "stateMutability": "nonpayable",
      "type": "function"
    },
    {
      "inputs": [
        {
          "internalType": "address",
          "name": "_newOwner",
          "type": "address"
        }
      ],
      "name": "transferOwnership",
      "outputs": [],
      "stateMutability": "nonpayable",
      "type": "function"
    },
    {
      "inputs": [
        {
          "internalType": "address",
          "name": "_newOwner",
          "type": "address"
        }
      ],
      "name": "transferNFTContractOwner",
      "outputs": [],
      "stateMutability": "nonpayable",
      "type": "function"
    },
    {
      "inputs": [
        {
          "internalType": "address",
          "name": "_toAddress",
          "type": "address"
        },
        {
          "internalType": "uint256",
          "name": "_tokenId",
          "type": "uint256"
        }
      ],
      "name": "mint",
      "outputs": [],
      "stateMutability": "nonpayable",
      "type": "function"
    },
    {
      "inputs": [
        {
          "internalType": "address",
          "name": "_newMinter",
          "type": "address"
        }
      ],
      "name": "setMinter",
      "outputs": [],
      "stateMutability": "nonpayable",
      "type": "function"
    },
    {
      "inputs": [
        {
          "internalType": "uint256",
          "name": "_optionId",
          "type": "uint256"
        }
      ],
      "name": "tokenURI",
      "outputs": [
        {
          "internalType": "string",
          "name": "",
          "type": "string"
        }
      ],
      "stateMutability": "view",
      "type": "function",
      "constant": true
    },
    {
      "inputs": [
        {
          "internalType": "address",
          "name": "_from",
          "type": "address"
        },
        {
          "internalType": "address",
          "name": "_to",
          "type": "address"
        },
        {
          "internalType": "uint256",
          "name": "_tokenId",
          "type": "uint256"
        }
      ],
      "name": "transferFrom",
      "outputs": [],
      "stateMutability": "nonpayable",
      "type": "function"
    },
    {
      "inputs": [
        {
          "internalType": "address",
          "name": "_owner",
          "type": "address"
        },
        {
          "internalType": "address",
          "name": "_operator",
          "type": "address"
        }
      ],
      "name": "isApprovedForAll",
      "outputs": [
        {
          "internalType": "bool",
          "name": "",
          "type": "bool"
        }
      ],
      "stateMutability": "view",
      "type": "function",
      "constant": true
    },
    {
      "inputs": [
        {
          "internalType": "uint256",
          "name": "",
          "type": "uint256"
        }
      ],
      "name": "ownerOf",
      "outputs": [
        {
          "internalType": "address",
          "name": "_owner",
          "type": "address"
        }
      ],
      "stateMutability": "view",
      "type": "function",
      "constant": true
    }
  ],
  "bytecode": "0x608060405260405180606001604052806038815260200162002884603891396003908051906020019062000035929190620002c3565b506064600555636065616060095562015180600a556040518060400160405280600060ff168152602001600060ff16815250600b906002620000799291906200035a565b506000600d556001600e553480156200009157600080fd5b50604051620028bc380380620028bc83398181016040526020811015620000b757600080fd5b81019080805190602001909291905050506000620000da6200023260201b60201c565b9050806000806101000a81548173ffffffffffffffffffffffffffffffffffffffff021916908373ffffffffffffffffffffffffffffffffffffffff1602179055508073ffffffffffffffffffffffffffffffffffffffff16600073ffffffffffffffffffffffffffffffffffffffff167f8be0079c531659141344cd1fd0a4f28419497f9722a3daafe3b4186f6b6457e060405160405180910390a35080600160006101000a81548173ffffffffffffffffffffffffffffffffffffffff021916908373ffffffffffffffffffffffffffffffffffffffff160217905550620001c96200023a60201b60201c565b600260006101000a81548173ffffffffffffffffffffffffffffffffffffffff021916908373ffffffffffffffffffffffffffffffffffffffff1602179055506200022b60006200021f6200023a60201b60201c565b6200026360201b60201c565b50620003c3565b600033905090565b60008060009054906101000a900473ffffffffffffffffffffffffffffffffffffffff16905090565b60018173ffffffffffffffffffffffffffffffffffffffff168373ffffffffffffffffffffffffffffffffffffffff167fddf252ad1be2c89b69c2b068fc378daa952ba7f163c4a11628f55a4df523b3ef60405160405180910390a45050565b828054600181600116156101000203166002900490600052602060002090601f016020900481019282620002fb576000855562000347565b82601f106200031657805160ff191683800117855562000347565b8280016001018555821562000347579182015b828111156200034657825182559160200191906001019062000329565b5b509050620003569190620003a4565b5090565b826002810192821562000391579160200282015b8281111562000390578251829060ff169055916020019190600101906200036e565b5b509050620003a09190620003a4565b5090565b5b80821115620003bf576000816000905550600101620003a5565b5090565b6124b180620003d36000396000f3fe6080604052600436106101dc5760003560e01c8063715018a611610102578063c311c52311610095578063e985e9c511610064578063e985e9c5146109c6578063f2fde38b14610a4d578063f337fba214610a9e578063fca3b5aa14610ae3576101dd565b8063c311c5231461088f578063c87b56dd146108bc578063d447627414610970578063da1a7b391461099b576101dd565b80638e449d86116100d15780638e449d861461075857806395d89b4114610783578063a83799b614610813578063a977bdd81461083e576101dd565b8063715018a6146106aa578063810c3716146106c1578063880c04e9146106ec5780638da5cb5b14610717576101dd565b806334d722c91161017a5780635bf8633a116101495780635bf8633a1461055d578063605361721461059e5780636352211e146105b55780636c0360eb1461061a576101dd565b806334d722c91461045b5780633ccfd60b1461049c57806340c10f19146104b35780634903b0d11461050e576101dd565b80632249240a116101b65780632249240a1461037357806323b872dd1461038a5780632eacb810146104055780633332426614610430576101dd565b806304d8e96b1461024f57806306fdde031461028a578063152e6f771461031a576101dd565b5b6000349050600061020b600a6101fd600985610b3490919063ffffffff16565b610bba90919063ffffffff16565b905080600b600d546002811061021d57fe5b0160008282540192505081905550808203600b600e546002811061023d57fe5b01600082825401925050819055505050005b34801561025b57600080fd5b506102886004803603602081101561027257600080fd5b8101908080359060200190929190505050610c43565b005b34801561029657600080fd5b5061029f610d74565b6040518080602001828103825283818151815260200191508051906020019080838360005b838110156102df5780820151818401526020810190506102c4565b50505050905090810190601f16801561030c5780820380516001836020036101000a031916815260200191505b509250505060405180910390f35b34801561032657600080fd5b506103716004803603608081101561033d57600080fd5b8101908080359060200190929190803590602001909291908035906020019092919080359060200190929190505050610db1565b005b34801561037f57600080fd5b50610388610e82565b005b34801561039657600080fd5b50610403600480360360608110156103ad57600080fd5b81019080803573ffffffffffffffffffffffffffffffffffffffff169060200190929190803573ffffffffffffffffffffffffffffffffffffffff16906020019092919080359060200190929190505050610f53565b005b34801561041157600080fd5b5061041a610f62565b6040518082815260200191505060405180910390f35b34801561043c57600080fd5b50610445610f68565b6040518082815260200191505060405180910390f35b34801561046757600080fd5b50610470610f6e565b604051808273ffffffffffffffffffffffffffffffffffffffff16815260200191505060405180910390f35b3480156104a857600080fd5b506104b1610f94565b005b3480156104bf57600080fd5b5061050c600480360360408110156104d657600080fd5b81019080803573ffffffffffffffffffffffffffffffffffffffff16906020019092919080359060200190929190505050611051565b005b34801561051a57600080fd5b506105476004803603602081101561053157600080fd5b81019080803590602001909291905050506111c9565b6040518082815260200191505060405180910390f35b34801561056957600080fd5b506105726111e4565b604051808273ffffffffffffffffffffffffffffffffffffffff16815260200191505060405180910390f35b3480156105aa57600080fd5b506105b361120a565b005b3480156105c157600080fd5b506105ee600480360360208110156105d857600080fd5b81019080803590602001909291905050506113f7565b604051808273ffffffffffffffffffffffffffffffffffffffff16815260200191505060405180910390f35b34801561062657600080fd5b5061062f611408565b6040518080602001828103825283818151815260200191508051906020019080838360005b8381101561066f578082015181840152602081019050610654565b50505050905090810190601f16801561069c5780820380516001836020036101000a031916815260200191505b509250505060405180910390f35b3480156106b657600080fd5b506106bf6114a6565b005b3480156106cd57600080fd5b506106d6611613565b6040518082815260200191505060405180910390f35b3480156106f857600080fd5b50610701611619565b6040518082815260200191505060405180910390f35b34801561072357600080fd5b5061072c61161f565b604051808273ffffffffffffffffffffffffffffffffffffffff16815260200191505060405180910390f35b34801561076457600080fd5b5061076d611648565b6040518082815260200191505060405180910390f35b34801561078f57600080fd5b5061079861164e565b6040518080602001828103825283818151815260200191508051906020019080838360005b838110156107d85780820151818401526020810190506107bd565b50505050905090810190601f1680156108055780820380516001836020036101000a031916815260200191505b509250505060405180910390f35b34801561081f57600080fd5b5061082861168b565b6040518082815260200191505060405180910390f35b34801561084a57600080fd5b5061088d6004803603602081101561086157600080fd5b81019080803573ffffffffffffffffffffffffffffffffffffffff169060200190929190505050611691565b005b34801561089b57600080fd5b506108a4611854565b60405180821515815260200191505060405180910390f35b3480156108c857600080fd5b506108f5600480360360208110156108df57600080fd5b810190808035906020019092919050505061185d565b6040518080602001828103825283818151815260200191508051906020019080838360005b8381101561093557808201518184015260208101905061091a565b50505050905090810190601f1680156109625780820380516001836020036101000a031916815260200191505b509250505060405180910390f35b34801561097c57600080fd5b50610985611912565b6040518082815260200191505060405180910390f35b3480156109a757600080fd5b506109b0611918565b6040518082815260200191505060405180910390f35b3480156109d257600080fd5b50610a35600480360360408110156109e957600080fd5b81019080803573ffffffffffffffffffffffffffffffffffffffff169060200190929190803573ffffffffffffffffffffffffffffffffffffffff16906020019092919050505061191e565b60405180821515815260200191505060405180910390f35b348015610a5957600080fd5b50610a9c60048036036020811015610a7057600080fd5b81019080803573ffffffffffffffffffffffffffffffffffffffff1690602001909291905050506119a6565b005b348015610aaa57600080fd5b50610ae160048036036040811015610ac157600080fd5b810190808035906020019092919080359060200190929190505050611a9b565b005b348015610aef57600080fd5b50610b3260048036036020811015610b0657600080fd5b81019080803573ffffffffffffffffffffffffffffffffffffffff169060200190929190505050611b5c565b005b600080831415610b475760009050610bb4565b6000828402905082848281610b5857fe5b0414610baf576040517f08c379a000000000000000000000000000000000000000000000000000000000815260040180806020018281038252602181526020018061245b6021913960400191505060405180910390fd5b809150505b92915050565b6000808211610c31576040517f08c379a000000000000000000000000000000000000000000000000000000000815260040180806020018281038252601a8152602001807f536166654d6174683a206469766973696f6e206279207a65726f00000000000081525060200191505060405180910390fd5b818381610c3a57fe5b04905092915050565b610c4b611cbf565b73ffffffffffffffffffffffffffffffffffffffff16610c6961161f565b73ffffffffffffffffffffffffffffffffffffffff1614610cf2576040517f08c379a00000000000000000000000000000000000000000000000000000000081526004018080602001828103825260208152602001807f4f776e61626c653a2063616c6c6572206973206e6f7420746865206f776e657281525060200191505060405180910390fd5b600060045414610d6a576040517f08c379a000000000000000000000000000000000000000000000000000000000815260040180806020018281038252601e8152602001807f6b657920746f6b656e2068617320616c7265616479206265656e20736574000081525060200191505060405180910390fd5b8060048190555050565b60606040518060400160405280601781526020017f4f7665722074686520436f756e746572204d61726b6574000000000000000000815250905090565b610db9611cbf565b73ffffffffffffffffffffffffffffffffffffffff16610dd761161f565b73ffffffffffffffffffffffffffffffffffffffff1614610e60576040517f08c379a00000000000000000000000000000000000000000000000000000000081526004018080602001828103825260208152602001807f4f776e61626c653a2063616c6c6572206973206e6f7420746865206f776e657281525060200191505060405180910390fd5b8360058190555082600681905550816007819055508060088190555050505050565b3373ffffffffffffffffffffffffffffffffffffffff16600260009054906101000a900473ffffffffffffffffffffffffffffffffffffffff1673ffffffffffffffffffffffffffffffffffffffff1614610f45576040517f08c379a000000000000000000000000000000000000000000000000000000000815260040180806020018281038252600e8152602001807f4e6f7420617574686f72697a656400000000000000000000000000000000000081525060200191505060405180910390fd5b610f51600e5433611cc7565b565b610f5d8282611051565b505050565b600d5481565b600e5481565b600260009054906101000a900473ffffffffffffffffffffffffffffffffffffffff1681565b610f9c611cbf565b73ffffffffffffffffffffffffffffffffffffffff16610fba61161f565b73ffffffffffffffffffffffffffffffffffffffff1614611043576040517f08c379a00000000000000000000000000000000000000000000000000000000081526004018080602001828103825260208152602001807f4f776e61626c653a2063616c6c6572206973206e6f7420746865206f776e657281525060200191505060405180910390fd5b61104f600d5433611cc7565b565b3373ffffffffffffffffffffffffffffffffffffffff16600260009054906101000a900473ffffffffffffffffffffffffffffffffffffffff1673ffffffffffffffffffffffffffffffffffffffff1614611114576040517f08c379a000000000000000000000000000000000000000000000000000000000815260040180806020018281038252600e8152602001807f4e6f7420617574686f72697a656400000000000000000000000000000000000081525060200191505060405180910390fd5b6000600160009054906101000a900473ffffffffffffffffffffffffffffffffffffffff1690508073ffffffffffffffffffffffffffffffffffffffff1663449a52f884846040518363ffffffff1660e01b8152600401808373ffffffffffffffffffffffffffffffffffffffff16815260200182815260200192505050600060405180830381600087803b1580156111ac57600080fd5b505af11580156111c0573d6000803e3d6000fd5b50505050505050565b600b81600281106111d957600080fd5b016000915090505481565b600160009054906101000a900473ffffffffffffffffffffffffffffffffffffffff1681565b60006004541415611283576040517f08c379a000000000000000000000000000000000000000000000000000000000815260040180806020018281038252601a8152602001807f6b657920746f6b656e20686173206e6f74206265656e2073657400000000000081525060200191505060405180910390fd5b6000600160009054906101000a900473ffffffffffffffffffffffffffffffffffffffff1690503373ffffffffffffffffffffffffffffffffffffffff168173ffffffffffffffffffffffffffffffffffffffff16636352211e6004546040518263ffffffff1660e01b81526004018082815260200191505060206040518083038186803b15801561131457600080fd5b505afa158015611328573d6000803e3d6000fd5b505050506040513d602081101561133e57600080fd5b810190808051906020019092919050505073ffffffffffffffffffffffffffffffffffffffff16146113d8576040517f08c379a00000000000000000000000000000000000000000000000000000000081526004018080602001828103825260178152602001807f4e6f74206f776e6572206f66206b657920746f6b656e2e00000000000000000081525060200191505060405180910390fd5b6113eb600d546113e661161f565b611cc7565b6113f433611d69565b50565b600061140161161f565b9050919050565b60038054600181600116156101000203166002900480601f01602080910402602001604051908101604052809291908181526020018280546001816001161561010002031660029004801561149e5780601f106114735761010080835404028352916020019161149e565b820191906000526020600020905b81548152906001019060200180831161148157829003601f168201915b505050505081565b6114ae611cbf565b73ffffffffffffffffffffffffffffffffffffffff166114cc61161f565b73ffffffffffffffffffffffffffffffffffffffff1614611555576040517f08c379a00000000000000000000000000000000000000000000000000000000081526004018080602001828103825260208152602001807f4f776e61626c653a2063616c6c6572206973206e6f7420746865206f776e657281525060200191505060405180910390fd5b600073ffffffffffffffffffffffffffffffffffffffff1660008054906101000a900473ffffffffffffffffffffffffffffffffffffffff1673ffffffffffffffffffffffffffffffffffffffff167f8be0079c531659141344cd1fd0a4f28419497f9722a3daafe3b4186f6b6457e060405160405180910390a360008060006101000a81548173ffffffffffffffffffffffffffffffffffffffff021916908373ffffffffffffffffffffffffffffffffffffffff160217905550565b60085481565b60065481565b60008060009054906101000a900473ffffffffffffffffffffffffffffffffffffffff16905090565b60055481565b60606040518060400160405280600981526020017f4f54434d41524b45540000000000000000000000000000000000000000000000815250905090565b60075481565b611699611cbf565b73ffffffffffffffffffffffffffffffffffffffff166116b761161f565b73ffffffffffffffffffffffffffffffffffffffff1614611740576040517f08c379a00000000000000000000000000000000000000000000000000000000081526004018080602001828103825260208152602001807f4f776e61626c653a2063616c6c6572206973206e6f7420746865206f776e657281525060200191505060405180910390fd5b600073ffffffffffffffffffffffffffffffffffffffff168173ffffffffffffffffffffffffffffffffffffffff16141561177a57600080fd5b6117a8600e54600260009054906101000a900473ffffffffffffffffffffffffffffffffffffffff16611cc7565b6000600160009054906101000a900473ffffffffffffffffffffffffffffffffffffffff1690508073ffffffffffffffffffffffffffffffffffffffff1663f2fde38b836040518263ffffffff1660e01b8152600401808273ffffffffffffffffffffffffffffffffffffffff168152602001915050600060405180830381600087803b15801561183857600080fd5b505af115801561184c573d6000803e3d6000fd5b505050505050565b60006001905090565b606061190b60038054600181600116156101000203166002900480601f0160208091040260200160405190810160405280929190818152602001828054600181600116156101000203166002900480156118f85780601f106118cd576101008083540402835291602001916118f8565b820191906000526020600020905b8154815290600101906020018083116118db57829003601f168201915b505050505061190684611d8c565b611ed3565b9050919050565b600a5481565b60095481565b60008273ffffffffffffffffffffffffffffffffffffffff1661193f61161f565b73ffffffffffffffffffffffffffffffffffffffff1614801561198d57508173ffffffffffffffffffffffffffffffffffffffff168373ffffffffffffffffffffffffffffffffffffffff16145b1561199b57600190506119a0565b600090505b92915050565b6119ae611cbf565b73ffffffffffffffffffffffffffffffffffffffff166119cc61161f565b73ffffffffffffffffffffffffffffffffffffffff1614611a55576040517f08c379a00000000000000000000000000000000000000000000000000000000081526004018080602001828103825260208152602001807f4f776e61626c653a2063616c6c6572206973206e6f7420746865206f776e657281525060200191505060405180910390fd5b600073ffffffffffffffffffffffffffffffffffffffff168173ffffffffffffffffffffffffffffffffffffffff161415611a8f57600080fd5b611a98816119a6565b50565b611aa3611cbf565b73ffffffffffffffffffffffffffffffffffffffff16611ac161161f565b73ffffffffffffffffffffffffffffffffffffffff1614611b4a576040517f08c379a00000000000000000000000000000000000000000000000000000000081526004018080602001828103825260208152602001807f4f776e61626c653a2063616c6c6572206973206e6f7420746865206f776e657281525060200191505060405180910390fd5b8160098190555080600a819055505050565b600073ffffffffffffffffffffffffffffffffffffffff168173ffffffffffffffffffffffffffffffffffffffff161415611b9657600080fd5b3373ffffffffffffffffffffffffffffffffffffffff16600260009054906101000a900473ffffffffffffffffffffffffffffffffffffffff1673ffffffffffffffffffffffffffffffffffffffff1614611c59576040517f08c379a000000000000000000000000000000000000000000000000000000000815260040180806020018281038252600e8152602001807f4e6f7420617574686f72697a656400000000000000000000000000000000000081525060200191505060405180910390fd5b6000600b600e5460028110611c6a57fe5b01541115611c7b57611c7a610e82565b5b80600260006101000a81548173ffffffffffffffffffffffffffffffffffffffff021916908373ffffffffffffffffffffffffffffffffffffffff16021790555050565b600033905090565b6000600b8360028110611cd657fe5b015490506000811415611ce95750611d65565b6000479050600082118015611cfe5750818110155b611d0757600080fd5b8273ffffffffffffffffffffffffffffffffffffffff166108fc839081150290604051600060405180830381858888f19350505050158015611d4d573d6000803e3d6000fd5b506000600b8560028110611d5d57fe5b018190555050505b5050565b6000611d7361161f565b9050611d7e82611f17565b611d888183612109565b5050565b60606000821415611dd4576040518060400160405280600181526020017f30000000000000000000000000000000000000000000000000000000000000008152509050611ece565b600082905060005b60008214611dfe578080600101915050600a8281611df657fe5b049150611ddc565b60008167ffffffffffffffff81118015611e1757600080fd5b506040519080825280601f01601f191660200182016040528015611e4a5781602001600182028036833780820191505090505b50905060006001830390508593505b60008414611ec657600a8481611e6b57fe5b0660300160f81b82828060019003935081518110611e8557fe5b60200101907effffffffffffffffffffffffffffffffffffffffffffffffffffffffffffff1916908160001a905350600a8481611ebe57fe5b049350611e59565b819450505050505b919050565b6060611f0f8383604051806020016040528060008152506040518060200160405280600081525060405180602001604052806000815250612169565b905092915050565b611f1f611cbf565b73ffffffffffffffffffffffffffffffffffffffff16611f3d61161f565b73ffffffffffffffffffffffffffffffffffffffff1614611fc6576040517f08c379a00000000000000000000000000000000000000000000000000000000081526004018080602001828103825260208152602001807f4f776e61626c653a2063616c6c6572206973206e6f7420746865206f776e657281525060200191505060405180910390fd5b600073ffffffffffffffffffffffffffffffffffffffff168173ffffffffffffffffffffffffffffffffffffffff16141561204c576040517f08c379a00000000000000000000000000000000000000000000000000000000081526004018080602001828103825260268152602001806124356026913960400191505060405180910390fd5b8073ffffffffffffffffffffffffffffffffffffffff1660008054906101000a900473ffffffffffffffffffffffffffffffffffffffff1673ffffffffffffffffffffffffffffffffffffffff167f8be0079c531659141344cd1fd0a4f28419497f9722a3daafe3b4186f6b6457e060405160405180910390a3806000806101000a81548173ffffffffffffffffffffffffffffffffffffffff021916908373ffffffffffffffffffffffffffffffffffffffff16021790555050565b60018173ffffffffffffffffffffffffffffffffffffffff168373ffffffffffffffffffffffffffffffffffffffff167fddf252ad1be2c89b69c2b068fc378daa952ba7f163c4a11628f55a4df523b3ef60405160405180910390a45050565b6060600086905060008690506000869050600086905060008690506000815183518551875189510101010167ffffffffffffffff811180156121aa57600080fd5b506040519080825280601f01601f1916602001820160405280156121dd5781602001600182028036833780820191505090505b50905060008190506000805b8851811015612257578881815181106121fe57fe5b602001015160f81c60f81b83838060010194508151811061221b57fe5b60200101907effffffffffffffffffffffffffffffffffffffffffffffffffffffffffffff1916908160001a90535080806001019150506121e9565b5060005b87518110156122c95787818151811061227057fe5b602001015160f81c60f81b83838060010194508151811061228d57fe5b60200101907effffffffffffffffffffffffffffffffffffffffffffffffffffffffffffff1916908160001a905350808060010191505061225b565b5060005b865181101561233b578681815181106122e257fe5b602001015160f81c60f81b8383806001019450815181106122ff57fe5b60200101907effffffffffffffffffffffffffffffffffffffffffffffffffffffffffffff1916908160001a90535080806001019150506122cd565b5060005b85518110156123ad5785818151811061235457fe5b602001015160f81c60f81b83838060010194508151811061237157fe5b60200101907effffffffffffffffffffffffffffffffffffffffffffffffffffffffffffff1916908160001a905350808060010191505061233f565b5060005b845181101561241f578481815181106123c657fe5b602001015160f81c60f81b8383806001019450815181106123e357fe5b60200101907effffffffffffffffffffffffffffffffffffffffffffffffffffffffffffff1916908160001a90535080806001019150506123b1565b5081985050505050505050509594505050505056fe4f776e61626c653a206e6577206f776e657220697320746865207a65726f2061646472657373536166654d6174683a206d756c7469706c69636174696f6e206f766572666c6f77a26469706673582212208506c7402becbc3876f81504c221c56c0bdf756ee8403ceb52e00cb72f03126b64736f6c6343000706003368747470733a2f2f6f74632d6e66742d6170692e6865726f6b756170702e636f6d2f6170692f6f74632d6e66742d76312f666163746f7279",
  "immutableReferences": {},
  "source": "pragma solidity >=0.6.0 <0.8.0;\n\nimport \"@openzeppelin/contracts/access/Ownable.sol\";\nimport \"@openzeppelin/contracts/utils/Strings.sol\";\nimport \"@openzeppelin/contracts/math/SafeMath.sol\";\nimport \"./IFactoryERC721.sol\";\nimport \"./OverTheCounter.sol\";\nimport \"./StringConcat.sol\";\n\ncontract OverTheCounterFactory is FactoryERC721, Ownable {\n    using Strings for string;\n    using SafeMath for uint256;\n\n    event Transfer(\n        address indexed from,\n        address indexed to,\n        uint256 indexed tokenId\n    );\n\n    address public nftAddress;\n    address public minterAddress;\n\n    string public baseURI = \"https://otc-nft-api.herokuapp.com/api/otc-nft-v1/factory\";\n    uint256 keyToken;\n\n    // price = basePriceUSD + (priceModifierHashCount/100) * hashCount + (priceModiferIntervalCount/100) * intervalCount + (priceModifierTotalMintedCount/100) * totalMinted\n    int256 public basePriceUSD = 100;\n    int256 public priceModifierHashCount;\n    int256 public priceModifierIntervalCount; // (now - intervalStartUnixSeconds) / intervalLengthSeconds = priceModifierIntervalCount\n    int256 public priceModifierTotalMintedCount;\n    \n    uint256 public intervalStartUnixSeconds = 1617256800; // 04/01/2020\n    uint256 public intervalLengthSeconds = 86400; // 1 day\n\n    uint256[2] public balances = [0, 0];\n    uint256 public ownerBalIdx = 0;\n    uint256 public minterBalIdx = 1;\n    \n    constructor(address _nftAddress) public {\n        nftAddress = _nftAddress;\n        minterAddress = owner();\n\n        fireTransferEvents(address(0), owner());\n    }\n\n    function name() external override pure returns (string memory) {\n        return \"Over the Counter Market\";\n    }\n\n    function symbol() external override pure returns (string memory) {\n        return \"OTCMARKET\";\n    }\n\n    function supportsFactoryInterface() public override pure returns (bool) {\n        return true;\n    }\n\n    function setPriceModifiers(int256 _basePriceUSD, int256 _hashCount, int256 _intervalCount, int256 _totalMintedCount) public onlyOwner {\n        basePriceUSD = _basePriceUSD;\n        priceModifierHashCount = _hashCount;\n        priceModifierIntervalCount = _intervalCount;\n        priceModifierTotalMintedCount = _totalMintedCount;\n    }\n\n    function setIntervalDetails(uint256 _intervalStartUnixSeconds, uint256 _intervalLengthSeconds) public onlyOwner {\n        intervalStartUnixSeconds = _intervalStartUnixSeconds;\n        intervalLengthSeconds = _intervalLengthSeconds;\n    }\n\n    function withdraw() public onlyOwner {\n        executeWithdraw(ownerBalIdx, msg.sender);\n    }\n\n    function withdrawMinterFee() public {\n        require(minterAddress == msg.sender, \"Not authorized\");\n        executeWithdraw(minterBalIdx, msg.sender);\n    }\n\n    function executeWithdraw(uint256 idx, address payable _dest) private {\n        uint256 _bal = balances[idx];\n        if (_bal == 0) {\n            return;\n        }\n        uint256 contractBal = address(this).balance;\n        require(_bal > 0 && contractBal >= _bal);\n\n        _dest.transfer(_bal);\n        balances[idx] = 0;\n    }\n\n    function setKeyToken(uint256 _keyTokenId) public onlyOwner {\n        require(keyToken == 0, \"key token has already been set\");\n        keyToken = _keyTokenId;\n    }\n\n    // allows the owner of a specific OTC NFT to take ownership of this contract and thereby earn any profits from the duration of their ownership\n    function takeOwnership() public {\n        require(keyToken != 0, \"key token has not been set\");\n\n        OverTheCounter overTheCounter = OverTheCounter(nftAddress);\n        require (overTheCounter.ownerOf(keyToken) == msg.sender, \"Not owner of key token.\");\n        \n        // withdraw funds to current owner\n        executeWithdraw(ownerBalIdx, payable(owner()));\n\n        // bon voyage\n        _transferOwnership(msg.sender);\n    }\n\n    function transferOwnership(address _newOwner) public override onlyOwner {\n        require(_newOwner != address(0));\n\n        transferOwnership(_newOwner);\n    }\n\n    function _transferOwnership(address _newOwner) private {\n        address _prevOwner = owner();\n        super.transferOwnership(_newOwner);\n        fireTransferEvents(_prevOwner, _newOwner);\n    }\n\n    // used to pass ownership to the new factory; should not be used to pass ownership to a human\n    function transferNFTContractOwner(address _newOwner) public onlyOwner {\n        require(_newOwner != address(0));\n        executeWithdraw(minterBalIdx, payable(minterAddress));\n\n        OverTheCounter overTheCounter = OverTheCounter(nftAddress);\n        overTheCounter.transferOwnership(_newOwner);\n    }\n\n    function fireTransferEvents(address _from, address _to) private {\n        emit Transfer(_from, _to, 1);\n    }\n\n    function mint(address _toAddress, uint256 _tokenId) public override {\n        require(minterAddress == msg.sender, \"Not authorized\");\n        \n        OverTheCounter overTheCounter = OverTheCounter(nftAddress);\n        overTheCounter.mintTo(_toAddress, _tokenId);\n    }\n\n    function setMinter(address _newMinter) public {\n        require(_newMinter != address(0));\n        require(minterAddress == msg.sender, \"Not authorized\");\n        if (balances[minterBalIdx] > 0) {\n            withdrawMinterFee();\n        }\n\n        minterAddress = _newMinter;\n    }\n\n    function tokenURI(uint256 _optionId) external override view returns (string memory) {\n        return StringConcat.strConcat(baseURI, Strings.toString(_optionId));\n    }\n\n    /**\n     * Hack to get things to work automatically on OpenSea.\n     * Use transferFrom so the frontend doesn't have to worry about different method names.\n     */\n    function transferFrom(\n        address _from,\n        address _to,\n        uint256 _tokenId\n    ) public {\n        mint(_to, _tokenId);\n    }\n\n    /**\n     * Hack to get things to work automatically on OpenSea.\n     * Use isApprovedForAll so the frontend doesn't have to worry about different method names.\n     */\n    function isApprovedForAll(address _owner, address _operator)\n        public\n        view\n        returns (bool)\n    {\n        if (owner() == _owner && _owner == _operator) {\n            return true;\n        }\n\n        return false;\n    }\n\n    /**\n     * Hack to get things to work automatically on OpenSea.\n     * Use isApprovedForAll so the frontend doesn't have to worry about different method names.\n     */\n    function ownerOf(uint256) public view returns (address _owner) {\n        return owner();\n    }\n\n    // payable contract so people can pay to mint NFTs\n    fallback() external payable {\n        uint256 totalVal = msg.value;\n        uint256 ownerPortion = totalVal.mul(9).div(10);\n        balances[ownerBalIdx] += ownerPortion;\n        balances[minterBalIdx] += (totalVal - ownerPortion);\n    }\n}\n",
  "sourcePath": "/Users/troyshields/blockchain/otc-nft/contracts/OverTheCounterFactory.sol",
  "compiler": {
    "name": "solc",
    "version": "0.7.6+commit.7338295f.Emscripten.clang"
  },
  "schemaVersion": "3.3.3",
  "updatedAt": "2021-03-25T04:52:17.288Z",
  "networkType": "ethereum",
  "devdoc": {
    "kind": "dev",
    "methods": {
      "owner()": {
        "details": "Returns the address of the current owner."
      },
      "renounceOwnership()": {
        "details": "Leaves the contract without owner. It will not be possible to call `onlyOwner` functions anymore. Can only be called by the current owner. NOTE: Renouncing ownership will leave the contract without an owner, thereby removing any functionality that is only available to the owner."
      },
      "tokenURI(uint256)": {
        "details": "Returns a URL specifying some metadata about the option. This metadata can be of the same structure as the ERC721 metadata."
      }
    },
    "version": 1
  },
  "userdoc": {
    "kind": "user",
    "methods": {
      "isApprovedForAll(address,address)": {
        "notice": "Hack to get things to work automatically on OpenSea. Use isApprovedForAll so the frontend doesn't have to worry about different method names."
      },
      "name()": {
        "notice": "Returns the name of this factory."
      },
      "ownerOf(uint256)": {
        "notice": "Hack to get things to work automatically on OpenSea. Use isApprovedForAll so the frontend doesn't have to worry about different method names."
      },
      "symbol()": {
        "notice": "Returns the symbol for this factory."
      },
      "transferFrom(address,address,uint256)": {
        "notice": "Hack to get things to work automatically on OpenSea. Use transferFrom so the frontend doesn't have to worry about different method names."
      }
    },
    "version": 1
  }
}